:020000040800F2
:1000000000100020510500089D0500089D0500080E
:1000100000000000000000000000000000000000E0
:100020000000000000000000000000009D05000826
:1000300000000000000000009D05000845040008C5
:100040009D050008000000009D0500089D050008B2
:100050009D0500089D0500089D0500089D050008F8
:10006000000000009D0500089D0500089D05000892
:100070009D0500089D0500089D0500080000000082
:100080009D05000800000000000000009D0500081C
:10009000000000009D0500089D0500089D05000862
:1000A000000000009D050008000000009D050008FC
:1000B0000000000000000000000000000000000040
:1000C000002243088B4274D303098B425FD3030A97
:1000D0008B4244D3030B8B4228D3030C8B420DD3AA
:1000E000FF22090212BA030C8B4202D31212090238
:1000F00065D0030B8B4219D300E0090AC30B8B4276
:1001000001D3CB03C01A5241830B8B4201D38B0323
:10011000C01A5241430B8B4201D34B03C01A5241C8
:10012000030B8B4201D30B03C01A5241C30A8B420B
:1001300001D3CB02C01A5241830A8B4201D38B02F6
:10014000C01A5241430A8B4201D34B02C01A52419A
:10015000030A8B4201D30B02C01A5241CDD2C3090C
:100160008B4201D3CB01C01A524183098B4201D388
:100170008B01C01A524143098B4201D34B01C01A73
:10018000524103098B4201D30B01C01A5241C308EB
:100190008B4201D3CB00C01A524183088B4201D35A
:1001A0008B00C01A524143088B4201D34B00C01A46
:1001B0005241411A00D20146524110467047FFE7B2
:1001C00001B5002000F00CF802BDC0460029F7D0B0
:1001D00003B5FFF775FF0EBC4243891A1847C046A6
:1001E0007047C04682B0394B1A6801210A431A6031
:1001F0005868374A02405A601868364A02401A6006
:100200001868354A02401A605868344A02405A60F9
:10021000DA6A0F208243DA62186B314A02401A63AD
:100220005A6B8A435A6300229A60009201921A68BC
:10023000802149020A431A60191C80229202A020E0
:10024000C0010B6813400193009B01330093019B95
:10025000002B02D1009B8342F3D11C4B1B689B03F4
:1002600002D50123019301E000230193019B012B9F
:100270002AD111221B4B1A60144B5A685A605A68D3
:100280005A605968184A0A405A605A6888214903D6
:100290000A435A601A68802149040A431A60191CEB
:1002A000802292040B681342FCD0084B5A68032149
:1002B0008A435A60596802220A435A60191C0C2268
:1002C0004B681340082BFBD102B07047001002406E
:1002D0000CB8FF08FFFFF6FEFFFFFBFFFFFFC0FFAC
:1002E000ACFEFFFF00200240FF7FC0FF10B51E4B99
:1002F0005B680C221340042B07D0082B09D0002B7D
:1003000022D11A4A1A4B1A6021E0184A184B1A6077
:100310001DE0154B5C685A68A402240F0234C02308
:100320005B021A4204D113484443114B1C600EE097
:100330000D4BDB6A0F21194001310C48FFF7C0FE5D
:1003400044430B4B1C6002E0084A094B1A60064B01
:100350005B681B061B0F084AD35CDBB2044A1168BA
:10036000D940116010BDC0460010024000127A0052
:100370001000002000093D0000000020F0B54F46AD
:100380004646C0B40025002201260327331C9340B3
:100390000C681C409C423AD10B79013B012B1DD8C3
:1003A00083683C1CAC40A343836084684B79AB40BA
:1003B000234383608388984613041B0C9946341C9E
:1003C0009C404346A34383808488A4468C794B4653
:1003D0009C40231C644623439BB2838003683C1CDF
:1003E000AC40A343036004680B79AB402343036034
:1003F000C3689C461304DB0B3C1C9C40231C6446D6
:100400009C43C460C468CB79AB402343C3600132D2
:100410000235102ABAD10CBC90469946F0BDC046B0
:100420008161704701857047002904D0044A5369EF
:100430001843506103E0024A536983435361704794
:1004400000100240054B1B889BB2002B04D0034ACE
:100450001388013B9BB213807047C04614000020F4
:10046000034B18801A1C13889BB2002BFBD17047DA
:1004700014000020F8B5FFF739FF2F4B1868FA2158
:100480008900FFF71DFE01382C4B98420DD82C4AED
:1004900050602C490B6A1B021B0AC0200006034354
:1004A0000B6200239360073313608020C002012198
:1004B000FFF7BAFF244C0223236001272771002590
:1004C000A57103266671E5712048211CFFF756FFD0
:1004D000802080020121FFF7A7FF102323602771EE
:1004E000A5716671E5719025ED05281C211CFFF7AB
:1004F00045FF281C1021FFF795FFFA204000FFF769
:10050000AFFFF236FF36114C301CFFF7A9FF281C55
:100510001021FFF785FF201C0221FFF783FF301C0D
:10052000FFF79EFF201C0221FFF77AFF281C1021F5
:10053000FFF778FFE8E7C04610000020FFFFFF004C
:1005400010E000E000ED00E018000020000400488A
:100550000C488546002103E00B4B5B5843500431A7
:100560000A480B4B42189A42F6D30A4A02E000238B
:1005700013600432084B9A42F9D3FFF733FEFFF7BA
:1005800079FFFEE700100020A00500080000002011
:10059000140000201400002020000020FEE70000CE
:1005A0000000000000000000010203040607080923
:0405B000006CDC02FD
:040000050800055199
:00000001FF
